{"abi":[{"type":"function","name":"UPGRADE_INTERFACE_VERSION","inputs":[],"outputs":[{"name":"","type":"string","internalType":"string"}],"stateMutability":"view"},{"type":"function","name":"addMarket","inputs":[{"name":"mtype","type":"uint8","internalType":"enum MatchHub.MarketType"},{"name":"odds","type":"uint256","internalType":"uint256"}],"outputs":[],"stateMutability":"nonpayable"},{"type":"function","name":"claim","inputs":[{"name":"marketId","type":"uint256","internalType":"uint256"}],"outputs":[],"stateMutability":"nonpayable"},{"type":"function","name":"initialize","inputs":[{"name":"_matchName","type":"string","internalType":"string"},{"name":"_owner","type":"address","internalType":"address"}],"outputs":[],"stateMutability":"nonpayable"},{"type":"function","name":"marketCount","inputs":[],"outputs":[{"name":"","type":"uint256","internalType":"uint256"}],"stateMutability":"view"},{"type":"function","name":"markets","inputs":[{"name":"","type":"uint256","internalType":"uint256"}],"outputs":[{"name":"mtype","type":"uint8","internalType":"enum MatchHub.MarketType"},{"name":"odds","type":"uint256","internalType":"uint256"},{"name":"state","type":"uint8","internalType":"enum MatchHub.State"},{"name":"result","type":"uint256","internalType":"uint256"}],"stateMutability":"view"},{"type":"function","name":"matchName","inputs":[],"outputs":[{"name":"","type":"string","internalType":"string"}],"stateMutability":"view"},{"type":"function","name":"owner","inputs":[],"outputs":[{"name":"","type":"address","internalType":"address"}],"stateMutability":"view"},{"type":"function","name":"placeBet","inputs":[{"name":"marketId","type":"uint256","internalType":"uint256"},{"name":"selection","type":"uint256","internalType":"uint256"}],"outputs":[],"stateMutability":"payable"},{"type":"function","name":"proxiableUUID","inputs":[],"outputs":[{"name":"","type":"bytes32","internalType":"bytes32"}],"stateMutability":"view"},{"type":"function","name":"renounceOwnership","inputs":[],"outputs":[],"stateMutability":"nonpayable"},{"type":"function","name":"resolveMarket","inputs":[{"name":"marketId","type":"uint256","internalType":"uint256"},{"name":"result","type":"uint256","internalType":"uint256"}],"outputs":[],"stateMutability":"nonpayable"},{"type":"function","name":"transferOwnership","inputs":[{"name":"newOwner","type":"address","internalType":"address"}],"outputs":[],"stateMutability":"nonpayable"},{"type":"function","name":"upgradeToAndCall","inputs":[{"name":"newImplementation","type":"address","internalType":"address"},{"name":"data","type":"bytes","internalType":"bytes"}],"outputs":[],"stateMutability":"payable"},{"type":"event","name":"BetPlaced","inputs":[{"name":"marketId","type":"uint256","indexed":true,"internalType":"uint256"},{"name":"user","type":"address","indexed":true,"internalType":"address"},{"name":"amount","type":"uint256","indexed":false,"internalType":"uint256"},{"name":"selection","type":"uint256","indexed":false,"internalType":"uint256"}],"anonymous":false},{"type":"event","name":"Initialized","inputs":[{"name":"version","type":"uint64","indexed":false,"internalType":"uint64"}],"anonymous":false},{"type":"event","name":"MarketAdded","inputs":[{"name":"marketId","type":"uint256","indexed":true,"internalType":"uint256"},{"name":"mtype","type":"uint8","indexed":false,"internalType":"enum MatchHub.MarketType"},{"name":"odds","type":"uint256","indexed":false,"internalType":"uint256"}],"anonymous":false},{"type":"event","name":"MarketResolved","inputs":[{"name":"marketId","type":"uint256","indexed":true,"internalType":"uint256"},{"name":"result","type":"uint256","indexed":false,"internalType":"uint256"}],"anonymous":false},{"type":"event","name":"MatchInitialized","inputs":[{"name":"name","type":"string","indexed":true,"internalType":"string"},{"name":"owner","type":"address","indexed":true,"internalType":"address"}],"anonymous":false},{"type":"event","name":"OwnershipTransferred","inputs":[{"name":"previousOwner","type":"address","indexed":true,"internalType":"address"},{"name":"newOwner","type":"address","indexed":true,"internalType":"address"}],"anonymous":false},{"type":"event","name":"Payout","inputs":[{"name":"marketId","type":"uint256","indexed":true,"internalType":"uint256"},{"name":"user","type":"address","indexed":true,"internalType":"address"},{"name":"amount","type":"uint256","indexed":false,"internalType":"uint256"}],"anonymous":false},{"type":"event","name":"Upgraded","inputs":[{"name":"implementation","type":"address","indexed":true,"internalType":"address"}],"anonymous":false},{"type":"error","name":"AddressEmptyCode","inputs":[{"name":"target","type":"address","internalType":"address"}]},{"type":"error","name":"AlreadyClaimed","inputs":[]},{"type":"error","name":"ERC1967InvalidImplementation","inputs":[{"name":"implementation","type":"address","internalType":"address"}]},{"type":"error","name":"ERC1967NonPayable","inputs":[]},{"type":"error","name":"FailedCall","inputs":[]},{"type":"error","name":"InvalidInitialization","inputs":[]},{"type":"error","name":"InvalidMarket","inputs":[{"name":"marketId","type":"uint256","internalType":"uint256"}]},{"type":"error","name":"Lost","inputs":[]},{"type":"error","name":"NoBet","inputs":[]},{"type":"error","name":"NotInitializing","inputs":[]},{"type":"error","name":"OwnableInvalidOwner","inputs":[{"name":"owner","type":"address","internalType":"address"}]},{"type":"error","name":"OwnableUnauthorizedAccount","inputs":[{"name":"account","type":"address","internalType":"address"}]},{"type":"error","name":"ReentrancyGuardReentrantCall","inputs":[]},{"type":"error","name":"TransferFailed","inputs":[]},{"type":"error","name":"UUPSUnauthorizedCallContext","inputs":[]},{"type":"error","name":"UUPSUnsupportedProxiableUUID","inputs":[{"name":"slot","type":"bytes32","internalType":"bytes32"}]},{"type":"error","name":"WrongState","inputs":[{"name":"required","type":"uint8","internalType":"enum MatchHub.State"}]},{"type":"error","name":"ZeroBet","inputs":[]}],"bytecode":{"object":"0x60a06040523073ffffffffffffffffffffffffffffffffffffffff1660809073ffffffffffffffffffffffffffffffffffffffff168152503480156041575f5ffd5b5060015f8190555060805161237561006f5f395f8181610f0801528181610f5d015261111701526123755ff3fe6080604052600436106100dc575f3560e01c80637ab4339d1161007e578063b1283e7711610058578063b1283e771461024e578063ec9790821461028d578063f2fde38b146102b7578063fcdb9b6e146102df576100dc565b80637ab4339d146101d25780638da5cb5b146101fa578063ad3cb1cc14610224576100dc565b806352d1902d116100ba57806352d1902d14610140578063605573331461016a578063715018a61461019257806371738f8c146101a8576100dc565b8063379607f5146100e05780634afe62b5146101085780634f1ef28614610124575b5f5ffd5b3480156100eb575f5ffd5b50610106600480360381019061010191906117c5565b610307565b005b610122600480360381019061011d91906117f0565b610624565b005b61013e600480360381019061013991906119c4565b610877565b005b34801561014b575f5ffd5b50610154610896565b6040516101619190611a36565b60405180910390f35b348015610175575f5ffd5b50610190600480360381019061018b91906117f0565b6108c7565b005b34801561019d575f5ffd5b506101a6610a13565b005b3480156101b3575f5ffd5b506101bc610a26565b6040516101c99190611aaf565b60405180910390f35b3480156101dd575f5ffd5b506101f860048036038101906101f39190611b2c565b610ab2565b005b348015610205575f5ffd5b5061020e610caa565b60405161021b9190611b98565b60405180910390f35b34801561022f575f5ffd5b50610238610cdf565b6040516102459190611aaf565b60405180910390f35b348015610259575f5ffd5b50610274600480360381019061026f91906117c5565b610d18565b6040516102849493929190611c79565b60405180910390f35b348015610298575f5ffd5b506102a1610d5c565b6040516102ae9190611cbc565b60405180910390f35b3480156102c2575f5ffd5b506102dd60048036038101906102d89190611cd5565b610d62565b005b3480156102ea575f5ffd5b5061030560048036038101906103009190611d23565b610de6565b005b61030f610eb9565b600254811061035557806040517f3d8c623000000000000000000000000000000000000000000000000000000000815260040161034c9190611cbc565b60405180910390fd5b5f60035f8381526020019081526020015f20905060018081111561037c5761037b611bb1565b5b816002015f9054906101000a900460ff16600181111561039f5761039e611bb1565b5b146103e25760016040517fe37d4aeb0000000000000000000000000000000000000000000000000000000081526004016103d99190611d61565b60405180910390fd5b5f816004015f3373ffffffffffffffffffffffffffffffffffffffff1673ffffffffffffffffffffffffffffffffffffffff1681526020019081526020015f2090505f815f015403610460576040517fd87e9e0400000000000000000000000000000000000000000000000000000000815260040160405180910390fd5b806002015f9054906101000a900460ff16156104a8576040517f646cf55800000000000000000000000000000000000000000000000000000000815260040160405180910390fd5b81600301548160010154146104e9576040517f39b8faea00000000000000000000000000000000000000000000000000000000815260040160405180910390fd5b6001816002015f6101000a81548160ff0219169083151502179055505f60648360010154835f015461051b9190611da7565b6105259190611e15565b90505f3373ffffffffffffffffffffffffffffffffffffffff168260405161054c90611e72565b5f6040518083038185875af1925050503d805f8114610586576040519150601f19603f3d011682016040523d82523d5f602084013e61058b565b606091505b50509050806105c6576040517f90b8ec1800000000000000000000000000000000000000000000000000000000815260040160405180910390fd5b3373ffffffffffffffffffffffffffffffffffffffff16857f5f7341a552ae2d452b071917104c05fbac3663936a69be768a05c40605056e7d8460405161060d9190611cbc565b60405180910390a350505050610621610efd565b50565b600254821061066a57816040517f3d8c62300000000000000000000000000000000000000000000000000000000081526004016106619190611cbc565b60405180910390fd5b5f60035f8481526020019081526020015f2090505f600181111561069157610690611bb1565b5b816002015f9054906101000a900460ff1660018111156106b4576106b3611bb1565b5b146106f6575f6040517fe37d4aeb0000000000000000000000000000000000000000000000000000000081526004016106ed9190611d61565b60405180910390fd5b5f340361072f576040517f6400ccd000000000000000000000000000000000000000000000000000000000815260040160405180910390fd5b60405180606001604052803481526020018381526020015f1515815250816004015f3373ffffffffffffffffffffffffffffffffffffffff1673ffffffffffffffffffffffffffffffffffffffff1681526020019081526020015f205f820151815f0155602082015181600101556040820151816002015f6101000a81548160ff0219169083151502179055509050508060050133908060018154018082558091505060019003905f5260205f20015f9091909190916101000a81548173ffffffffffffffffffffffffffffffffffffffff021916908373ffffffffffffffffffffffffffffffffffffffff1602179055503373ffffffffffffffffffffffffffffffffffffffff16837f1b8a9031cb9351278d70a994f81536e9e08c91162e64f92b2fe4766fb7a891b4348560405161086a929190611e86565b60405180910390a3505050565b61087f610f06565b61088882610fec565b6108928282610ff7565b5050565b5f61089f611115565b7f360894a13ba1a3210667c828492db98dca3e2076cc3735a920a3ca505d382bbc5f1b905090565b6108cf61119c565b600254821061091557816040517f3d8c623000000000000000000000000000000000000000000000000000000000815260040161090c9190611cbc565b60405180910390fd5b5f60035f8481526020019081526020015f2090505f600181111561093c5761093b611bb1565b5b816002015f9054906101000a900460ff16600181111561095f5761095e611bb1565b5b146109a1575f6040517fe37d4aeb0000000000000000000000000000000000000000000000000000000081526004016109989190611d61565b60405180910390fd5b8181600301819055506001816002015f6101000a81548160ff021916908360018111156109d1576109d0611bb1565b5b0217905550827f6dfc24f0f2fb42e49fb4fa3ffa8abb148cab908a1fb8335b3f128a08b2594af183604051610a069190611cbc565b60405180910390a2505050565b610a1b61119c565b610a245f611223565b565b60018054610a3390611eda565b80601f0160208091040260200160405190810160405280929190818152602001828054610a5f90611eda565b8015610aaa5780601f10610a8157610100808354040283529160200191610aaa565b820191905f5260205f20905b815481529060010190602001808311610a8d57829003601f168201915b505050505081565b5f610abb6112f4565b90505f815f0160089054906101000a900460ff161590505f825f015f9054906101000a900467ffffffffffffffff1690505f5f8267ffffffffffffffff16148015610b035750825b90505f60018367ffffffffffffffff16148015610b3657505f3073ffffffffffffffffffffffffffffffffffffffff163b145b905081158015610b44575080155b15610b7b576040517ff92ee8a900000000000000000000000000000000000000000000000000000000815260040160405180910390fd5b6001855f015f6101000a81548167ffffffffffffffff021916908367ffffffffffffffff1602179055508315610bc8576001855f0160086101000a81548160ff0219169083151502179055505b610bd186611307565b610bd961131b565b878760019182610bea9291906120b4565b508573ffffffffffffffffffffffffffffffffffffffff168888604051610c129291906121af565b60405180910390207ff5655d331e0028194d5c35e197c5152a30f0adeeb94df7f2e1187d1045bf741260405160405180910390a38315610ca0575f855f0160086101000a81548160ff0219169083151502179055507fc7f505b2f371ae2175ee4913f4499e1f2633a7b5936321eed1cdaeb6115181d26001604051610c979190612213565b60405180910390a15b5050505050505050565b5f5f610cb4611325565b9050805f015f9054906101000a900473ffffffffffffffffffffffffffffffffffffffff1691505090565b6040518060400160405280600581526020017f352e302e3000000000000000000000000000000000000000000000000000000081525081565b6003602052805f5260405f205f91509050805f015f9054906101000a900460ff1690806001015490806002015f9054906101000a900460ff16908060030154905084565b60025481565b610d6a61119c565b5f73ffffffffffffffffffffffffffffffffffffffff168173ffffffffffffffffffffffffffffffffffffffff1603610dda575f6040517f1e4fbdf7000000000000000000000000000000000000000000000000000000008152600401610dd19190611b98565b60405180910390fd5b610de381611223565b50565b610dee61119c565b5f60025f815480929190610e019061222c565b9190505590505f60035f8381526020019081526020015f20905083815f015f6101000a81548160ff02191690836002811115610e4057610e3f611bb1565b5b02179055508281600101819055505f816002015f6101000a81548160ff02191690836001811115610e7457610e73611bb1565b5b0217905550817f8834a63f78f18f26ec0da4865d31724a29e69ce3350e749b34e54adf80a9851b8585604051610eab929190612273565b60405180910390a250505050565b60025f5403610ef4576040517f3ee5aeb500000000000000000000000000000000000000000000000000000000815260040160405180910390fd5b60025f81905550565b60015f81905550565b7f000000000000000000000000000000000000000000000000000000000000000073ffffffffffffffffffffffffffffffffffffffff163073ffffffffffffffffffffffffffffffffffffffff161480610fb357507f000000000000000000000000000000000000000000000000000000000000000073ffffffffffffffffffffffffffffffffffffffff16610f9a61134c565b73ffffffffffffffffffffffffffffffffffffffff1614155b15610fea576040517fe07c8dba00000000000000000000000000000000000000000000000000000000815260040160405180910390fd5b565b610ff461119c565b50565b8173ffffffffffffffffffffffffffffffffffffffff166352d1902d6040518163ffffffff1660e01b8152600401602060405180830381865afa92505050801561105f57506040513d601f19601f8201168201806040525081019061105c91906122c4565b60015b6110a057816040517f4c9c8ce30000000000000000000000000000000000000000000000000000000081526004016110979190611b98565b60405180910390fd5b7f360894a13ba1a3210667c828492db98dca3e2076cc3735a920a3ca505d382bbc5f1b811461110657806040517faa1d49a40000000000000000000000000000000000000000000000000000000081526004016110fd9190611a36565b60405180910390fd5b611110838361139f565b505050565b7f000000000000000000000000000000000000000000000000000000000000000073ffffffffffffffffffffffffffffffffffffffff163073ffffffffffffffffffffffffffffffffffffffff161461119a576040517fe07c8dba00000000000000000000000000000000000000000000000000000000815260040160405180910390fd5b565b6111a4611411565b73ffffffffffffffffffffffffffffffffffffffff166111c2610caa565b73ffffffffffffffffffffffffffffffffffffffff1614611221576111e5611411565b6040517f118cdaa70000000000000000000000000000000000000000000000000000000081526004016112189190611b98565b60405180910390fd5b565b5f61122c611325565b90505f815f015f9054906101000a900473ffffffffffffffffffffffffffffffffffffffff16905082825f015f6101000a81548173ffffffffffffffffffffffffffffffffffffffff021916908373ffffffffffffffffffffffffffffffffffffffff1602179055508273ffffffffffffffffffffffffffffffffffffffff168173ffffffffffffffffffffffffffffffffffffffff167f8be0079c531659141344cd1fd0a4f28419497f9722a3daafe3b4186f6b6457e060405160405180910390a3505050565b5f5f6112fe611418565b90508091505090565b61130f611441565b61131881611481565b50565b611323611441565b565b5f7f9016d09d72d40fdae2fd8ceac6b6234c7706214fd39c1cd1e609a0528c199300905090565b5f6113787f360894a13ba1a3210667c828492db98dca3e2076cc3735a920a3ca505d382bbc5f1b611505565b5f015f9054906101000a900473ffffffffffffffffffffffffffffffffffffffff16905090565b6113a88261150e565b8173ffffffffffffffffffffffffffffffffffffffff167fbc7cd75a20ee27fd9adebab32041f755214dbc6bffa90cc0225b39da2e5c2d3b60405160405180910390a25f81511115611404576113fe82826115d7565b5061140d565b61140c611657565b5b5050565b5f33905090565b5f7ff0c57e16840df040f15088dc2f81fe391c3923bec73e23a9662efc9c229c6a005f1b905090565b611449611693565b61147f576040517fd7e6bcf800000000000000000000000000000000000000000000000000000000815260040160405180910390fd5b565b611489611441565b5f73ffffffffffffffffffffffffffffffffffffffff168173ffffffffffffffffffffffffffffffffffffffff16036114f9575f6040517f1e4fbdf70000000000000000000000000000000000000000000000000000000081526004016114f09190611b98565b60405180910390fd5b61150281611223565b50565b5f819050919050565b5f8173ffffffffffffffffffffffffffffffffffffffff163b0361156957806040517f4c9c8ce30000000000000000000000000000000000000000000000000000000081526004016115609190611b98565b60405180910390fd5b806115957f360894a13ba1a3210667c828492db98dca3e2076cc3735a920a3ca505d382bbc5f1b611505565b5f015f6101000a81548173ffffffffffffffffffffffffffffffffffffffff021916908373ffffffffffffffffffffffffffffffffffffffff16021790555050565b60605f5f8473ffffffffffffffffffffffffffffffffffffffff16846040516116009190612329565b5f60405180830381855af49150503d805f8114611638576040519150601f19603f3d011682016040523d82523d5f602084013e61163d565b606091505b509150915061164d8583836116b1565b9250505092915050565b5f341115611691576040517fb398979f00000000000000000000000000000000000000000000000000000000815260040160405180910390fd5b565b5f61169c6112f4565b5f0160089054906101000a900460ff16905090565b6060826116c6576116c18261173e565b611736565b5f82511480156116ec57505f8473ffffffffffffffffffffffffffffffffffffffff163b145b1561172e57836040517f9996b3150000000000000000000000000000000000000000000000000000000081526004016117259190611b98565b60405180910390fd5b819050611737565b5b9392505050565b5f8151111561174f57805160208201fd5b6040517fd6bda27500000000000000000000000000000000000000000000000000000000815260040160405180910390fd5b5f604051905090565b5f5ffd5b5f5ffd5b5f819050919050565b6117a481611792565b81146117ae575f5ffd5b50565b5f813590506117bf8161179b565b92915050565b5f602082840312156117da576117d961178a565b5b5f6117e7848285016117b1565b91505092915050565b5f5f604083850312156118065761180561178a565b5b5f611813858286016117b1565b9250506020611824858286016117b1565b9150509250929050565b5f73ffffffffffffffffffffffffffffffffffffffff82169050919050565b5f6118578261182e565b9050919050565b6118678161184d565b8114611871575f5ffd5b50565b5f813590506118828161185e565b92915050565b5f5ffd5b5f5ffd5b5f601f19601f8301169050919050565b7f4e487b71000000000000000000000000000000000000000000000000000000005f52604160045260245ffd5b6118d682611890565b810181811067ffffffffffffffff821117156118f5576118f46118a0565b5b80604052505050565b5f611907611781565b905061191382826118cd565b919050565b5f67ffffffffffffffff821115611932576119316118a0565b5b61193b82611890565b9050602081019050919050565b828183375f83830152505050565b5f61196861196384611918565b6118fe565b9050828152602081018484840111156119845761198361188c565b5b61198f848285611948565b509392505050565b5f82601f8301126119ab576119aa611888565b5b81356119bb848260208601611956565b91505092915050565b5f5f604083850312156119da576119d961178a565b5b5f6119e785828601611874565b925050602083013567ffffffffffffffff811115611a0857611a0761178e565b5b611a1485828601611997565b9150509250929050565b5f819050919050565b611a3081611a1e565b82525050565b5f602082019050611a495f830184611a27565b92915050565b5f81519050919050565b5f82825260208201905092915050565b8281835e5f83830152505050565b5f611a8182611a4f565b611a8b8185611a59565b9350611a9b818560208601611a69565b611aa481611890565b840191505092915050565b5f6020820190508181035f830152611ac78184611a77565b905092915050565b5f5ffd5b5f5ffd5b5f5f83601f840112611aec57611aeb611888565b5b8235905067ffffffffffffffff811115611b0957611b08611acf565b5b602083019150836001820283011115611b2557611b24611ad3565b5b9250929050565b5f5f5f60408486031215611b4357611b4261178a565b5b5f84013567ffffffffffffffff811115611b6057611b5f61178e565b5b611b6c86828701611ad7565b93509350506020611b7f86828701611874565b9150509250925092565b611b928161184d565b82525050565b5f602082019050611bab5f830184611b89565b92915050565b7f4e487b71000000000000000000000000000000000000000000000000000000005f52602160045260245ffd5b60038110611bef57611bee611bb1565b5b50565b5f819050611bff82611bde565b919050565b5f611c0e82611bf2565b9050919050565b611c1e81611c04565b82525050565b611c2d81611792565b82525050565b60028110611c4457611c43611bb1565b5b50565b5f819050611c5482611c33565b919050565b5f611c6382611c47565b9050919050565b611c7381611c59565b82525050565b5f608082019050611c8c5f830187611c15565b611c996020830186611c24565b611ca66040830185611c6a565b611cb36060830184611c24565b95945050505050565b5f602082019050611ccf5f830184611c24565b92915050565b5f60208284031215611cea57611ce961178a565b5b5f611cf784828501611874565b91505092915050565b60038110611d0c575f5ffd5b50565b5f81359050611d1d81611d00565b92915050565b5f5f60408385031215611d3957611d3861178a565b5b5f611d4685828601611d0f565b9250506020611d57858286016117b1565b9150509250929050565b5f602082019050611d745f830184611c6a565b92915050565b7f4e487b71000000000000000000000000000000000000000000000000000000005f52601160045260245ffd5b5f611db182611792565b9150611dbc83611792565b9250828202611dca81611792565b91508282048414831517611de157611de0611d7a565b5b5092915050565b7f4e487b71000000000000000000000000000000000000000000000000000000005f52601260045260245ffd5b5f611e1f82611792565b9150611e2a83611792565b925082611e3a57611e39611de8565b5b828204905092915050565b5f81905092915050565b50565b5f611e5d5f83611e45565b9150611e6882611e4f565b5f82019050919050565b5f611e7c82611e52565b9150819050919050565b5f604082019050611e995f830185611c24565b611ea66020830184611c24565b9392505050565b7f4e487b71000000000000000000000000000000000000000000000000000000005f52602260045260245ffd5b5f6002820490506001821680611ef157607f821691505b602082108103611f0457611f03611ead565b5b50919050565b5f82905092915050565b5f819050815f5260205f209050919050565b5f6020601f8301049050919050565b5f82821b905092915050565b5f60088302611f707fffffffffffffffffffffffffffffffffffffffffffffffffffffffffffffffff82611f35565b611f7a8683611f35565b95508019841693508086168417925050509392505050565b5f819050919050565b5f611fb5611fb0611fab84611792565b611f92565b611792565b9050919050565b5f819050919050565b611fce83611f9b565b611fe2611fda82611fbc565b848454611f41565b825550505050565b5f5f905090565b611ff9611fea565b612004818484611fc5565b505050565b5b818110156120275761201c5f82611ff1565b60018101905061200a565b5050565b601f82111561206c5761203d81611f14565b61204684611f26565b81016020851015612055578190505b61206961206185611f26565b830182612009565b50505b505050565b5f82821c905092915050565b5f61208c5f1984600802612071565b1980831691505092915050565b5f6120a4838361207d565b9150826002028217905092915050565b6120be8383611f0a565b67ffffffffffffffff8111156120d7576120d66118a0565b5b6120e18254611eda565b6120ec82828561202b565b5f601f831160018114612119575f8415612107578287013590505b6121118582612099565b865550612178565b601f19841661212786611f14565b5f5b8281101561214e57848901358255600182019150602085019450602081019050612129565b8683101561216b5784890135612167601f89168261207d565b8355505b6001600288020188555050505b50505050505050565b5f81905092915050565b5f6121968385612181565b93506121a3838584611948565b82840190509392505050565b5f6121bb82848661218b565b91508190509392505050565b5f819050919050565b5f67ffffffffffffffff82169050919050565b5f6121fd6121f86121f3846121c7565b611f92565b6121d0565b9050919050565b61220d816121e3565b82525050565b5f6020820190506122265f830184612204565b92915050565b5f61223682611792565b91507fffffffffffffffffffffffffffffffffffffffffffffffffffffffffffffffff820361226857612267611d7a565b5b600182019050919050565b5f6040820190506122865f830185611c15565b6122936020830184611c24565b9392505050565b6122a381611a1e565b81146122ad575f5ffd5b50565b5f815190506122be8161229a565b92915050565b5f602082840312156122d9576122d861178a565b5b5f6122e6848285016122b0565b91505092915050565b5f81519050919050565b5f612303826122ef565b61230d8185611e45565b935061231d818560208601611a69565b80840191505092915050565b5f61233482846122f9565b91508190509291505056fea2646970667358221220cec89c3ae8ac973d464bef74ac9fbd3f9203def2305b09d272287cc4467fd54164736f6c634300081e0033","linkReferences":{}},"methodIdentifiers":{"UPGRADE_INTERFACE_VERSION()":"ad3cb1cc","addMarket(uint8,uint256)":"fcdb9b6e","claim(uint256)":"379607f5","initialize(string,address)":"7ab4339d","marketCount()":"ec979082","markets(uint256)":"b1283e77","matchName()":"71738f8c","owner()":"8da5cb5b","placeBet(uint256,uint256)":"4afe62b5","proxiableUUID()":"52d1902d","renounceOwnership()":"715018a6","resolveMarket(uint256,uint256)":"60557333","transferOwnership(address)":"f2fde38b","upgradeToAndCall(address,bytes)":"4f1ef286"},"id":37}