{"abi":[{"type":"constructor","inputs":[{"name":"_implementation","type":"address","internalType":"address"}],"stateMutability":"nonpayable"},{"type":"function","name":"allHubs","inputs":[{"name":"","type":"uint256","internalType":"uint256"}],"outputs":[{"name":"","type":"address","internalType":"address"}],"stateMutability":"view"},{"type":"function","name":"createHub","inputs":[],"outputs":[{"name":"proxy","type":"address","internalType":"address"}],"stateMutability":"nonpayable"},{"type":"function","name":"getAllHubs","inputs":[],"outputs":[{"name":"","type":"address[]","internalType":"address[]"}],"stateMutability":"view"},{"type":"function","name":"implementation","inputs":[],"outputs":[{"name":"","type":"address","internalType":"address"}],"stateMutability":"view"},{"type":"function","name":"owner","inputs":[],"outputs":[{"name":"","type":"address","internalType":"address"}],"stateMutability":"view"},{"type":"function","name":"renounceOwnership","inputs":[],"outputs":[],"stateMutability":"nonpayable"},{"type":"function","name":"setImplementation","inputs":[{"name":"_newImpl","type":"address","internalType":"address"}],"outputs":[],"stateMutability":"nonpayable"},{"type":"function","name":"transferOwnership","inputs":[{"name":"newOwner","type":"address","internalType":"address"}],"outputs":[],"stateMutability":"nonpayable"},{"type":"event","name":"ImplementationUpdated","inputs":[{"name":"newImplementation","type":"address","indexed":true,"internalType":"address"}],"anonymous":false},{"type":"event","name":"MatchHubCreated","inputs":[{"name":"proxy","type":"address","indexed":true,"internalType":"address"},{"name":"owner","type":"address","indexed":true,"internalType":"address"}],"anonymous":false},{"type":"event","name":"OwnershipTransferred","inputs":[{"name":"previousOwner","type":"address","indexed":true,"internalType":"address"},{"name":"newOwner","type":"address","indexed":true,"internalType":"address"}],"anonymous":false},{"type":"error","name":"OwnableInvalidOwner","inputs":[{"name":"owner","type":"address","internalType":"address"}]},{"type":"error","name":"OwnableUnauthorizedAccount","inputs":[{"name":"account","type":"address","internalType":"address"}]},{"type":"error","name":"ZeroAddress","inputs":[]}],"bytecode":{"object":"0x608060405234801561000f575f5ffd5b506040516113233803806113238339818101604052810190610031919061027c565b335f73ffffffffffffffffffffffffffffffffffffffff168173ffffffffffffffffffffffffffffffffffffffff16036100a2575f6040517f1e4fbdf700000000000000000000000000000000000000000000000000000000815260040161009991906102b6565b60405180910390fd5b6100b18161015d60201b60201c565b505f73ffffffffffffffffffffffffffffffffffffffff168173ffffffffffffffffffffffffffffffffffffffff1603610117576040517fd92e233d00000000000000000000000000000000000000000000000000000000815260040160405180910390fd5b8060015f6101000a81548173ffffffffffffffffffffffffffffffffffffffff021916908373ffffffffffffffffffffffffffffffffffffffff160217905550506102cf565b5f5f5f9054906101000a900473ffffffffffffffffffffffffffffffffffffffff169050815f5f6101000a81548173ffffffffffffffffffffffffffffffffffffffff021916908373ffffffffffffffffffffffffffffffffffffffff1602179055508173ffffffffffffffffffffffffffffffffffffffff168173ffffffffffffffffffffffffffffffffffffffff167f8be0079c531659141344cd1fd0a4f28419497f9722a3daafe3b4186f6b6457e060405160405180910390a35050565b5f5ffd5b5f73ffffffffffffffffffffffffffffffffffffffff82169050919050565b5f61024b82610222565b9050919050565b61025b81610241565b8114610265575f5ffd5b50565b5f8151905061027681610252565b92915050565b5f602082840312156102915761029061021e565b5b5f61029e84828501610268565b91505092915050565b6102b081610241565b82525050565b5f6020820190506102c95f8301846102a7565b92915050565b611047806102dc5f395ff3fe608060405234801561000f575f5ffd5b5060043610610086575f3560e01c80638da5cb5b116100595780638da5cb5b14610100578063940ee7481461011e578063d784d4261461013c578063f2fde38b1461015857610086565b806311d49fe91461008a5780635c60da1b146100a85780635fb0a418146100c6578063715018a6146100f6575b5f5ffd5b610092610174565b60405161009f91906107e1565b60405180910390f35b6100b06101ff565b6040516100bd9190610810565b60405180910390f35b6100e060048036038101906100db9190610860565b610224565b6040516100ed9190610810565b60405180910390f35b6100fe61025f565b005b610108610272565b6040516101159190610810565b60405180910390f35b610126610299565b6040516101339190610810565b60405180910390f35b610156600480360381019061015191906108b5565b610427565b005b610172600480360381019061016d91906108b5565b61051a565b005b606060028054806020026020016040519081016040528092919081815260200182805480156101f557602002820191905f5260205f20905b815f9054906101000a900473ffffffffffffffffffffffffffffffffffffffff1673ffffffffffffffffffffffffffffffffffffffff16815260200190600101908083116101ac575b5050505050905090565b60015f9054906101000a900473ffffffffffffffffffffffffffffffffffffffff1681565b60028181548110610233575f80fd5b905f5260205f20015f915054906101000a900473ffffffffffffffffffffffffffffffffffffffff1681565b61026761059e565b6102705f610625565b565b5f5f5f9054906101000a900473ffffffffffffffffffffffffffffffffffffffff16905090565b5f5f637ab4339d60e01b336040516024016102b49190610810565b604051602081830303815290604052907bffffffffffffffffffffffffffffffffffffffffffffffffffffffff19166020820180517bffffffffffffffffffffffffffffffffffffffffffffffffffffffff8381831617835250505050905060015f9054906101000a900473ffffffffffffffffffffffffffffffffffffffff1681604051610342906106ed565b61034d929190610950565b604051809103905ff080158015610366573d5f5f3e3d5ffd5b509150600282908060018154018082558091505060019003905f5260205f20015f9091909190916101000a81548173ffffffffffffffffffffffffffffffffffffffff021916908373ffffffffffffffffffffffffffffffffffffffff1602179055503373ffffffffffffffffffffffffffffffffffffffff168273ffffffffffffffffffffffffffffffffffffffff167fbd834c409a4e58816907fe140694e2beb8a3710f569d9d5b102e07ec4381c0bc60405160405180910390a35090565b61042f61059e565b5f73ffffffffffffffffffffffffffffffffffffffff168173ffffffffffffffffffffffffffffffffffffffff1603610494576040517fd92e233d00000000000000000000000000000000000000000000000000000000815260040160405180910390fd5b8060015f6101000a81548173ffffffffffffffffffffffffffffffffffffffff021916908373ffffffffffffffffffffffffffffffffffffffff1602179055508073ffffffffffffffffffffffffffffffffffffffff167f310ba5f1d2ed074b51e2eccd052a47ae9ab7c6b800d1fca3db3999d6a592ca0360405160405180910390a250565b61052261059e565b5f73ffffffffffffffffffffffffffffffffffffffff168173ffffffffffffffffffffffffffffffffffffffff1603610592575f6040517f1e4fbdf70000000000000000000000000000000000000000000000000000000081526004016105899190610810565b60405180910390fd5b61059b81610625565b50565b6105a66106e6565b73ffffffffffffffffffffffffffffffffffffffff166105c4610272565b73ffffffffffffffffffffffffffffffffffffffff1614610623576105e76106e6565b6040517f118cdaa700000000000000000000000000000000000000000000000000000000815260040161061a9190610810565b60405180910390fd5b565b5f5f5f9054906101000a900473ffffffffffffffffffffffffffffffffffffffff169050815f5f6101000a81548173ffffffffffffffffffffffffffffffffffffffff021916908373ffffffffffffffffffffffffffffffffffffffff1602179055508173ffffffffffffffffffffffffffffffffffffffff168173ffffffffffffffffffffffffffffffffffffffff167f8be0079c531659141344cd1fd0a4f28419497f9722a3daafe3b4186f6b6457e060405160405180910390a35050565b5f33905090565b6106938061097f83390190565b5f81519050919050565b5f82825260208201905092915050565b5f819050602082019050919050565b5f73ffffffffffffffffffffffffffffffffffffffff82169050919050565b5f61074c82610723565b9050919050565b61075c81610742565b82525050565b5f61076d8383610753565b60208301905092915050565b5f602082019050919050565b5f61078f826106fa565b6107998185610704565b93506107a483610714565b805f5b838110156107d45781516107bb8882610762565b97506107c683610779565b9250506001810190506107a7565b5085935050505092915050565b5f6020820190508181035f8301526107f98184610785565b905092915050565b61080a81610742565b82525050565b5f6020820190506108235f830184610801565b92915050565b5f5ffd5b5f819050919050565b61083f8161082d565b8114610849575f5ffd5b50565b5f8135905061085a81610836565b92915050565b5f6020828403121561087557610874610829565b5b5f6108828482850161084c565b91505092915050565b61089481610742565b811461089e575f5ffd5b50565b5f813590506108af8161088b565b92915050565b5f602082840312156108ca576108c9610829565b5b5f6108d7848285016108a1565b91505092915050565b5f81519050919050565b5f82825260208201905092915050565b8281835e5f83830152505050565b5f601f19601f8301169050919050565b5f610922826108e0565b61092c81856108ea565b935061093c8185602086016108fa565b61094581610908565b840191505092915050565b5f6040820190506109635f830185610801565b81810360208301526109758184610918565b9050939250505056fe6080604052604051610693380380610693833981810160405281019061002591906104d7565b610035828261003c60201b60201c565b50506105b3565b61004b826100c060201b60201c565b8173ffffffffffffffffffffffffffffffffffffffff167fbc7cd75a20ee27fd9adebab32041f755214dbc6bffa90cc0225b39da2e5c2d3b60405160405180910390a25f815111156100ad576100a7828261018f60201b60201c565b506100bc565b6100bb61021560201b60201c565b5b5050565b5f8173ffffffffffffffffffffffffffffffffffffffff163b0361011b57806040517f4c9c8ce30000000000000000000000000000000000000000000000000000000081526004016101129190610540565b60405180910390fd5b8061014d7f360894a13ba1a3210667c828492db98dca3e2076cc3735a920a3ca505d382bbc5f1b61025160201b60201c565b5f015f6101000a81548173ffffffffffffffffffffffffffffffffffffffff021916908373ffffffffffffffffffffffffffffffffffffffff16021790555050565b60605f5f8473ffffffffffffffffffffffffffffffffffffffff16846040516101b8919061059d565b5f60405180830381855af49150503d805f81146101f0576040519150601f19603f3d011682016040523d82523d5f602084013e6101f5565b606091505b509150915061020b85838361025a60201b60201c565b9250505092915050565b5f34111561024f576040517fb398979f00000000000000000000000000000000000000000000000000000000815260040160405180910390fd5b565b5f819050919050565b60608261027557610270826102ed60201b60201c565b6102e5565b5f825114801561029b57505f8473ffffffffffffffffffffffffffffffffffffffff163b145b156102dd57836040517f9996b3150000000000000000000000000000000000000000000000000000000081526004016102d49190610540565b60405180910390fd5b8190506102e6565b5b9392505050565b5f815111156102fe57805160208201fd5b6040517fd6bda27500000000000000000000000000000000000000000000000000000000815260040160405180910390fd5b5f604051905090565b5f5ffd5b5f5ffd5b5f73ffffffffffffffffffffffffffffffffffffffff82169050919050565b5f61036a82610341565b9050919050565b61037a81610360565b8114610384575f5ffd5b50565b5f8151905061039581610371565b92915050565b5f5ffd5b5f5ffd5b5f601f19601f8301169050919050565b7f4e487b71000000000000000000000000000000000000000000000000000000005f52604160045260245ffd5b6103e9826103a3565b810181811067ffffffffffffffff82111715610408576104076103b3565b5b80604052505050565b5f61041a610330565b905061042682826103e0565b919050565b5f67ffffffffffffffff821115610445576104446103b3565b5b61044e826103a3565b9050602081019050919050565b8281835e5f83830152505050565b5f61047b6104768461042b565b610411565b9050828152602081018484840111156104975761049661039f565b5b6104a284828561045b565b509392505050565b5f82601f8301126104be576104bd61039b565b5b81516104ce848260208601610469565b91505092915050565b5f5f604083850312156104ed576104ec610339565b5b5f6104fa85828601610387565b925050602083015167ffffffffffffffff81111561051b5761051a61033d565b5b610527858286016104aa565b9150509250929050565b61053a81610360565b82525050565b5f6020820190506105535f830184610531565b92915050565b5f81519050919050565b5f81905092915050565b5f61057782610559565b6105818185610563565b935061059181856020860161045b565b80840191505092915050565b5f6105a8828461056d565b915081905092915050565b60d4806105bf5f395ff3fe6080604052600a600c565b005b60186014601a565b6026565b565b5f60216044565b905090565b365f5f375f5f365f845af43d5f5f3e805f81146040573d5ff35b3d5ffd5b5f606e7f360894a13ba1a3210667c828492db98dca3e2076cc3735a920a3ca505d382bbc5f1b6095565b5f015f9054906101000a900473ffffffffffffffffffffffffffffffffffffffff16905090565b5f81905091905056fea264697066735822122012be58f472d1d72b1c203e6cbf1cd79e7ec4a6e677c1bd22c0927ed631052da764736f6c634300081e0033a2646970667358221220ab27b366ac12662fa1b3055c16beca9a27b08887c84c4a6d5012614dc81b141064736f6c634300081e0033","linkReferences":{}},"methodIdentifiers":{"allHubs(uint256)":"5fb0a418","createHub()":"940ee748","getAllHubs()":"11d49fe9","implementation()":"5c60da1b","owner()":"8da5cb5b","renounceOwnership()":"715018a6","setImplementation(address)":"d784d426","transferOwnership(address)":"f2fde38b"},"id":38}